:1000000003308A00C82B0000FF00030E8301A1000B
:100010000A08A0008A010408A2007708A300780853
:10002000A4007908A5007A08A600831383128B1D0B
:100030001B280B1830280B1E1F288B18332822086A
:1000400084002308F7002408F8002508F900260892
:10005000FA0020088A00210E8300FF0E7F0E09009F
:100060008A110A1203298A110A12D6288316061445
:100070008312061C4028A71840280230F800D52813
:10008000B5103508831687008312871013082730B0
:1000900093008316140C03184F28831249288312E7
:1000A0001308BC001308703093008316140C031857
:1000B0005B28831255288312B510350883168700F4
:1000C000831287143C1B6928A71869280330F8009D
:1000D000D528B510350883168700831287101308BA
:1000E000613093008316140C031878288312722849
:1000F0008312130893018316140C031881288312AA
:100100007B2883121308AB00130893018316140C89
:1001100003188C288312862883121308B400BA01AE
:100120003A08073C031CA5282C303A0784008313A7
:10013000130893018316140C0318A02883129A281D
:10014000831213088000BA0A9028B5103508831668
:10015000870083128714B510350883168700831231
:1001600087101308173093008316140C0318BA284D
:100170008312B4288312130893018316140C0318F6
:10018000C3288312BD2883121308BB00B51035089D
:1001900083168700831287143B18D228A7140130D6
:1001A000F800D528A7100030F8000800B601362066
:1001B0007808B900B9080319DF28390BFF282C0883
:1001C000B60036207808B900B9080319DF28390BC2
:1001D000EA28DF283608273C031DF028051585117D
:1001E0003608443C031DF628051185113608443CA9
:1001F0000319FF283608273C0319FF2885158B10A3
:100200008A110A121F28061E0329043085060608D3
:100210000B108A110A121F280B138B138B1B0D292D
:100220000B1683160113061483128B15C0308B0432
:100230008A110A12E52B831687110716871283127B
:100240009412B512350883168700831235163508C7
:10025000831687008312B511350883168700203076
:1002600083129400C0308316940083128A110A12FC
:10027000E62B8316871006140711831235113508F3
:100280008316870083120711B5103508831687007F
:10029000831287101308303093008316140C031850
:1002A000532983124D2983121308FF3093008316BC
:1002B000140C03185D298312572983121308C230C6
:1002C00093008316140C0318672983126129831283
:1002D0001308C23093008316140C0318712983127B
:1002E0006B2983121308C23093008316140C031871
:1002F0007B298312752983121308C2309300831659
:10030000140C0318852983127F298312B510350830
:100310008316870083128714B5103508831687006B
:100320008312871013082A3093008316140C0318C5
:100330009B298312952983121308FF30930083169B
:10034000140C0318A52983129F2983121308C230A5
:1003500093008316140C0318AF298312A929831262
:100360001308C23093008316140C0318B9298312A2
:10037000B32983121308C23093008316140C031898
:10038000C3298312BD2983121308C2309300831638
:10039000140C0318CD298312C7298312B510350810
:1003A0008316870083128714B510350883168700DB
:1003B0008312871013082B3093008316140C031834
:1003C000E3298312DD29831213083808930083166A
:1003D000140C0318ED298312E72983121308C23085
:1003E00093008316140C0318F7298312F129831242
:1003F0001308C23093008316140C0318012A8312C9
:10040000FB2983121308C23093008316140C0318BF
:100410000B2A8312052A83121308C2309300831615
:10042000140C0318152A83120F2A8312B5103508ED
:100430008316870083128714B5103508831687004A
:100440008312871013082C3093008316140C0318A2
:100450002B2A8312252A8312130893018316140C66
:100460000318342A83122E2A8312B51035088316F6
:10047000870083128714B51035088316870083120E
:1004800087101308213093008316140C03184A2A8E
:100490008312442A83121308073093008316140C26
:1004A0000318542A83124E2A8312B5103508831676
:1004B000870083128714B5103508831687008312CE
:1004C00087101308223093008316140C03186A2A2D
:1004D0008312642A83121308073093008316140CC6
:1004E0000318742A83126E2A8312B51035088316F6
:1004F000870083128714B51035088316870083128E
:1005000087101308233093008316140C03188A2ACB
:100510008312842A83121308033093008316140C69
:100520000318942A83128E2A8312B5103508831675
:10053000870083128714B51035088316870083124D
:1005400087101308243093008316140C0318AA2A6A
:100550008312A42A831213080A3093008316140C02
:100560000318B42A8312AE2A8312B51035088316F5
:10057000870083128714B51035088316870083120D
:1005800087101308253093008316140C0318CA2A09
:100590008312C42A83121308370893008316140C9D
:1005A0000318D42A8312CE2A8312B5103508831675
:1005B000870083128714B5103508831687008312CD
:1005C00087101308263093008316140C0318EA2AA8
:1005D0008312E42A83121308073093008316140C45
:1005E0000318F42A8312EE2A8312B51035088316F5
:1005F000870083128714B51035088316870083128D
:1006000087101308273093008316140C03180A2B45
:100610008312042B83121308703093008316140C7A
:100620000318142B83120E2B8312B5103508831672
:10063000870083128714B51035088316870083124C
:1006400087101308313093008316140C03182A2BDB
:100650008312242B83121308013093008316140C89
:100660000318342B83122E2B8312B51035088316F2
:10067000870083128714B51035088316870083120C
:1006800087101308323093008316140C03184A2B7A
:100690008312442B831213080A3093008316140C20
:1006A0000318542B83124E2B8312B5103508831672
:1006B000870083128714B5103508831687008312CC
:1006C00087101308333093008316140C03186A2B19
:1006D0008312642B831213080A3093008316140CC0
:1006E0000318742B83126E2B8312B51035088316F2
:1006F0008700831287148A110A12EB2B35113508F3
:100700008316870083120711B510350883168700FA
:10071000831287101308203093008316140C0318DB
:10072000932B83128D2B831213080F3093008316A3
:10073000140C03189D2B8312972B8312B5103508C8
:1007400083168700831287140230B7003730840085
:10075000831300080319BA2B0130F800F701F70BD7
:10076000AF2BF80BAE2B4A30F700F70BB52BB82B9D
:10077000800BAC2B351135088316870083120715C3
:100780003130F700F70BC22BC52B8A110A12EC2B64
:1007900003081F398300A710AA01AB01FF30B50081
:1007A00083161F149F141F159F1107309C0083127E
:1007B0002710A801A901AC01AD01AE01AF01B00144
:1007C000B101B201B301B4010C291B294030B700BB
:1007D0000A30B80039297E2B11308316860000308C
:0C07E0008500831285016300F32B630089
:02400E00313F40
:00000001FF
;PIC16F876A
;CRC=BC83  CREATED="27-Ago.-16 09:55"
