:1000000005308A005F2D0000FF00030E8301A10070
:100010000A08A0008A010408A2007708A300780853
:10002000A4007908A5007A08A600831383128B1D0B
:100030001B280B1830280B1E1F288B18332822086A
:1000400084002308F7002408F8002508F900260892
:10005000FA0020088A00210E8300FF0E7F0E09009F
:100060008A110A123A288A110A1236288B108A112C
:100070000A121F28061E4B280130B600861A442893
:10008000861E40280130B700061B4A28061F462856
:100090000130B8004C28B60106080B108A110A126C
:1000A0001F280B138B138B1B52280B16831601135F
:1000B000061483128B15C0308B048A110A12912DFD
:1000C000831687110716871283129412B51235080A
:1000D000831687008312351635088316870083122E
:1000E000B511350883168700203083129400C03084
:1000F0008316940083128A110A12922D8316871098
:1001000006140711831235113508831687008312F0
:100110000711B5103508831687008312871013085E
:10012000303093008316140C0318982883129228F9
:1001300083121308FF3093008316140C0318A228AF
:1001400083129C2883121308C23093008316140C68
:100150000318AC288312A62883121308C230930018
:100160008316140C0318B6288312B02883121308C0
:10017000C23093008316140C0318C0288312BA28C7
:1001800083121308C23093008316140C0318CA2874
:100190008312C4288312B510350883168700831292
:1001A0008714B5103508831687008312871013084B
:1001B0002A3093008316140C0318E0288312DA28DF
:1001C00083121308FF3093008316140C0318EA28D7
:1001D0008312E42883121308C23093008316140C90
:1001E0000318F4288312EE2883121308C2309300F8
:1001F0008316140C0318FE288312F82883121308A0
:10020000C23093008316140C0318082983120229A4
:1002100083121308C23093008316140C031812299A
:1002200083120C298312B5103508831687008312B8
:100230008714B510350883168700831287101308BA
:100240002B3093008316140C0318282983122229BB
:10025000831213083D0893008316140C03183229E7
:1002600083122C2983121308C23093008316140CB6
:1002700003183C298312362983121308C2309300D5
:100280008316140C0318462983124029831213087D
:10029000C23093008316140C0318502983124A2984
:1002A00083121308C23093008316140C03185A29C2
:1002B000831254298312B5103508831687008312E0
:1002C0008714B5103508831687008312871013082A
:1002D0002C3093008316140C0318702983126A299A
:1002E0008312130893018316140C031879298312BF
:1002F00073298312B510350883168700831287147B
:10030000B510350883168700831287101308213033
:1003100093008316140C03188F29831289298312E2
:100320001308073093008316140C031899298312BD
:1003300093298312B510350883168700831287141A
:10034000B5103508831687008312871013082230F2
:1003500093008316140C0318AF298312A929831262
:100360001308073093008316140C0318B92983125D
:10037000B3298312B51035088316870083128714BA
:10038000B5103508831687008312871013082330B1
:1003900093008316140C0318CF298312C9298312E2
:1003A0001308033093008316140C0318D929831201
:1003B000D3298312B510350883168700831287145A
:1003C000B510350883168700831287101308243070
:1003D00093008316140C0318EF298312E929831262
:1003E00013080A3093008316140C0318F92983129A
:1003F000F3298312B51035088316870083128714FA
:10040000B51035088316870083128710130825302E
:1004100093008316140C03180F2A8312092A8312DF
:1004200013083C0893008316140C0318192A83122E
:10043000132A8312B5103508831687008312871498
:10044000B5103508831687008312871013082630ED
:1004500093008316140C03182F2A8312292A83125F
:100460001308073093008316140C0318392A8312DB
:10047000332A8312B5103508831687008312871438
:10048000B5103508831687008312871013082730AC
:1004900093008316140C03184F2A8312492A8312DF
:1004A0001308703093008316140C0318592A831212
:1004B000532A8312B51035088316870083128714D8
:1004C000B510350883168700831287101308313062
:1004D00093008316140C03186F2A8312692A83125F
:1004E0001308013093008316140C0318792A831221
:1004F000732A8312B5103508831687008312871478
:10050000B510350883168700831287101308323020
:1005100093008316140C03188F2A8312892A8312DE
:1005200013080A3093008316140C0318992A8312B7
:10053000932A8312B5103508831687008312871417
:10054000B5103508831687008312871013083330DF
:1005500093008316140C0318AF2A8312A92A83125E
:1005600013080A3093008316140C0318B92A831257
:10057000B32A8312B51035088316870083128714B7
:100580008A110A12972D3D30840083130008031945
:10059000D72A0130F800F701F70BCC2AF80BCB2A49
:1005A0004A30F700F70BD22AD52A800BC92A080057
:1005B000351135088316870083120711B5103508E9
:1005C0008316870083128710130820309300831648
:1005D000140C0318ED2A8312E72A831213080F3034
:1005E00093008316140C0318F72A8312F12A83123E
:1005F000B510350883168700831287140230BD00BA
:10060000C322351135088316870083120715313050
:10061000F700F70B092B0C2B8A110A12982D8B1F50
:10062000132B2714142B27100B138B138B1B152B39
:10063000351135088316870083120711B510350868
:1006400083168700831287101308273093008316C0
:10065000140C03182D2B8312272B831213087030D0
:1006600093008316140C0318372B8312312B83123B
:10067000B51035088316870083128714B510350826
:100680008316870083128710130822309300831685
:10069000140C03184D2B8312472B831213080130BF
:1006A00093008316140C0318572B8312512B8312BB
:1006B000B51035088316870083128714B5103508E6
:1006C0008316870083128710130830309300831637
:1006D000140C03186D2B8312672B83121308340834
:1006E00093008316140C0318772B8312712B83123B
:1006F0001308C23093008316140C0318812B831245
:100700007B2B83121308C23093008316140C03183A
:100710008B2B8312852B83121308C2309300831610
:10072000140C0318952B83128F2B83121308C230DD
:1007300093008316140C03189F2B8312992B83129A
:10074000B51035088316870083128714B510350855
:10075000831687008312871013082A3093008316AC
:10076000140C0318B52B8312AF2B83121308340813
:1007700093008316140C0318BF2B8312B92B83121A
:100780001308C23093008316140C0318C92B83126C
:10079000C32B83121308C23093008316140C031862
:1007A000D32B8312CD2B83121308C23093008316F0
:1007B000140C0318DD2B8312D72B83121308C230BD
:1007C00093008316140C0318E72B8312E12B83127A
:1007D000B51035088316870083128714B5103508C5
:1007E000831687008312871013080B30930083163B
:1007F000140C0318FD2B8312F72B8312130893019B
:100800008316140C0318062C8312002C8312130871
:10081000B400130893018316140C0318112C8312CF
:100820000B2C8312130893018316140C03181A2C33
:100830008312142C8312130893018316140C0318CB
:10084000232C83121D2C8312130893018316140C7E
:1008500003182C2C8312262C8312B510350883160E
:10086000870083128714B51035088316870083121A
:1008700087101308A03093008316140C0318422C21
:1008800083123C2C8312AA0A13082A0893008316A9
:10089000140C03184D2C8312472C831213083408B0
:1008A00093008316140C0318572C8312512C8312B7
:1008B000BC013C08073C031C6F2C2C303C07840017
:1008C00083130008BE0013083E0893008316140C1F
:1008D00003186C2C8312662C8312BC0A592CB51099
:1008E00035088316870083128714B51035088316E0
:1008F0008700831287101308203093008316140C8E
:100900000318842C83127E2C831213080E3093005C
:100910008316140C03188E2C8312882C8312B510A6
:10092000350883168700831287143511350883161E
:100930008700831207150430F700F70B9D2CA02CBD
:10094000351135088316870083120711A901A80104
:10095000831606148312061CB82CA80A0319A90AC8
:100960002808F43C031DB72C290BB72CB82CA82C55
:10097000B5103508831687008312871013082730B7
:1009800093008316140C0318C72C8312C12C8312F6
:100990001308BD001308703093008316140C03185D
:1009A000D32C8312CD2C8312B51035088316870003
:1009B00083128714B51035088316870083128710B9
:1009C0001308223093008316140C0318E92C8312A9
:1009D000E32C83121308073093008316140C0318BA
:1009E000F32C8312ED2C8312B51035088316870083
:1009F00083128714B5103508831687008312871079
:100A00001308E13093008316140C0318092D831288
:100A1000032D8312B51035088316870083128714BF
:100A2000B51035088316870083128710130820300D
:100A300093008316140C03181F2D8312192D831293
:100A400013080F3093008316140C0318292D8312FA
:100A5000232D8312B510350883168700831287145F
:100A60003511350883168700831207153130F700DA
:100A7000F70B382D3B2D2808F43C031D492D290B7D
:100A8000492D271C452DC0308B048B100230F800F7
:100A90005E2D3D1A562DBD1E562D271C512DC030E2
:100AA0008B048B100030F8005E2D5E2D271C5A2D14
:100AB000C0308B048B100130F8005E2D0800030855
:100AC0001F398300A710AA01AB01FF30B500B601A2
:100AD000B701B80183161F149F141F159F1107300B
:100AE0009C0083122710A801A901AC01AD01AE0141
:100AF000AF01B001B101B201B301B401FF308316FF
:100B000086000130850081131F109F141F159F154B
:100B10001F1383121F179F1783169F1783121F140B
:100B2000512860284030BC000130BD007E28D82A02
:100B3000851005110030F8001F08C73978049F00A0
:100B40000130BD00C322B601B701B80163001F1513
:100B50001F19A82D1E08FA0083161E088312B9005B
:100B60007A08BA000130BD00C3223A08023C0318DB
:100B7000062EFF3A031DC02D3908843C0318062EAB
:100B8000360B062E2730AC000830B4000F2378084F
:100B9000BB001930BD00C3222730AC000A30B400BE
:100BA0000F237808BB001930BD00C3228514B70895
:100BB000031DF02DB808031DF02D360BF02D02306B
:100BC000BC00FA30BD00C322BC0BE12D051502307C
:100BD000BC00FA30BD00C322BC0BE92D0511D72D96
:100BE00005114430AC000830B4000F237808BB0076
:100BF0001930BD00C3224430AC000A30B4000F23CA
:100C00007808BB001930BD00C3228510A32D6300F6
:02400E00313F40
:00000001FF
;PIC16F876A
;CRC=57E2  CREATED="13-Ago.-16 15:23"
